{
  "_format": "hh-sol-artifact-1",
  "contractName": "Docial",
  "sourceName": "contracts/Docial.sol",
  "abi": [
    {
      "anonymous": false,
      "inputs": [
        {
          "indexed": false,
          "internalType": "uint256",
          "name": "id",
          "type": "uint256"
        },
        {
          "indexed": false,
          "internalType": "string",
          "name": "hash",
          "type": "string"
        },
        {
          "indexed": false,
          "internalType": "uint256",
          "name": "timestamp",
          "type": "uint256"
        },
        {
          "indexed": false,
          "internalType": "address",
          "name": "author",
          "type": "address"
        }
      ],
      "name": "ImageUploaded",
      "type": "event"
    },
    {
      "inputs": [
        {
          "internalType": "string",
          "name": "image",
          "type": "string"
        }
      ],
      "name": "postImage",
      "outputs": [],
      "stateMutability": "nonpayable",
      "type": "function"
    }
  ],
  "bytecode": "0x608060405234801561001057600080fd5b50610657806100206000396000f3fe608060405234801561001057600080fd5b506004361061002b5760003560e01c8063b3f68aa314610030575b600080fd5b61004a600480360381019061004591906103d1565b61004c565b005b600081511161005a57600080fd5b600033905060008081548092919061007190610453565b9190505550600160008273ffffffffffffffffffffffffffffffffffffffff1673ffffffffffffffffffffffffffffffffffffffff168152602001908152602001600020604051806080016040528060005481526020018481526020014281526020018373ffffffffffffffffffffffffffffffffffffffff16815250908060018154018082558091505060019003906000526020600020906004020160009091909190915060008201518160000155602082015181600101908051906020019061013d9291906101d4565b506040820151816002015560608201518160030160006101000a81548173ffffffffffffffffffffffffffffffffffffffff021916908373ffffffffffffffffffffffffffffffffffffffff16021790555050507fc90cf599c0b4f50d44c87db2397ecbf9a52c7b73e8ff334fa47f96d1607ba64d6000548342846040516101c89493929190610574565b60405180910390a15050565b8280546101e0906105ef565b90600052602060002090601f0160209004810192826102025760008555610249565b82601f1061021b57805160ff1916838001178555610249565b82800160010185558215610249579182015b8281111561024857825182559160200191906001019061022d565b5b509050610256919061025a565b5090565b5b8082111561027357600081600090555060010161025b565b5090565b6000604051905090565b600080fd5b600080fd5b600080fd5b600080fd5b6000601f19601f8301169050919050565b7f4e487b7100000000000000000000000000000000000000000000000000000000600052604160045260246000fd5b6102de82610295565b810181811067ffffffffffffffff821117156102fd576102fc6102a6565b5b80604052505050565b6000610310610277565b905061031c82826102d5565b919050565b600067ffffffffffffffff82111561033c5761033b6102a6565b5b61034582610295565b9050602081019050919050565b82818337600083830152505050565b600061037461036f84610321565b610306565b9050828152602081018484840111156103905761038f610290565b5b61039b848285610352565b509392505050565b600082601f8301126103b8576103b761028b565b5b81356103c8848260208601610361565b91505092915050565b6000602082840312156103e7576103e6610281565b5b600082013567ffffffffffffffff81111561040557610404610286565b5b610411848285016103a3565b91505092915050565b7f4e487b7100000000000000000000000000000000000000000000000000000000600052601160045260246000fd5b6000819050919050565b600061045e82610449565b91507fffffffffffffffffffffffffffffffffffffffffffffffffffffffffffffffff8214156104915761049061041a565b5b600182019050919050565b6104a581610449565b82525050565b600081519050919050565b600082825260208201905092915050565b60005b838110156104e55780820151818401526020810190506104ca565b838111156104f4576000848401525b50505050565b6000610505826104ab565b61050f81856104b6565b935061051f8185602086016104c7565b61052881610295565b840191505092915050565b600073ffffffffffffffffffffffffffffffffffffffff82169050919050565b600061055e82610533565b9050919050565b61056e81610553565b82525050565b6000608082019050610589600083018761049c565b818103602083015261059b81866104fa565b90506105aa604083018561049c565b6105b76060830184610565565b95945050505050565b7f4e487b7100000000000000000000000000000000000000000000000000000000600052602260045260246000fd5b6000600282049050600182168061060757607f821691505b6020821081141561061b5761061a6105c0565b5b5091905056fea264697066735822122095b26d885158cf2df12594f2821522699175994edef1e2acff1d505f1cde17e164736f6c63430008090033",
  "linkReferences": {},
  "deployedLinkReferences": {}
}